:020000040800F2
:100000004014002045010008E1020008D902000860
:10001000DD020008B90100085F09000800000000C7
:1000200000000000000000000000000011060008B1
:10003000BD01000800000000690300082507000852
:100040005F0100085F0100085F0100085F01000810
:100050005F0100085F0100085F0100085F01000800
:100060005F0100085F0100085F0100085F010008F0
:100070005F0100085F0100085F0100085F010008E0
:100080005F0100085F0100085F0100085F010008D0
:100090005F0100085F0100085F0100085F010008C0
:1000A0005F0100085F0100085F0100085F010008B0
:1000B0005F0100085F0100085F0100085F010008A0
:1000C0005F0100085F0100085F0100085F01000890
:1000D0005F010008890700085F0100085F01000850
:1000E0005F0100085F0100085F0100085F01000870
:1000F0005F0100085F0100085F0100085F01000860
:100100005F0100085F0100085F0100085F0100084F
:100110005F0100085F0100085F0100085F0100083F
:100120005F0100085F0100085F0100085F0100082F
:10013000DFF80CD000F02EF800480047B10D0008A1
:10014000401400200648804706480047FEE7FEE7C7
:10015000FEE7FEE7FEE7FEE7FEE7FEE7FEE7FEE777
:10016000290700083101000830B50B460146002080
:100170002022012409E021FA02F59D4205D303FA69
:1001800002F5491B04FA02F52844151EA2F10102EA
:10019000F1DC30BD064C074D06E0E06840F001039D
:1001A00094E8070098471034AC42F6D3FFF7C4FF39
:1001B000101100083011000800BFFEE770472DE95C
:1001C000F0410246002500260020002300240027DD
:1001D00091F803C00CF00F0591F803C00CF0100C5F
:1001E000BCF1000F03D091F802C04CEA050591F86C
:1001F00000C0BCF1000F31D0146800202BE04FF09C
:10020000010C0CFA00F3B1F800C00CEA03069E42A0
:1002100020D183004FF00F0C0CFA03F7BC4305FA12
:1002200003FC4CEA040491F803C0BCF1280F06D18A
:100230004FF0010C0CFA00FCC2F814C00AE091F86F
:1002400003C0BCF1480F05D14FF0010C0CFA00FCC3
:10025000C2F810C0401C0828D1D31460B1F800C007
:10026000BCF1FF0F34DD546800202EE000F1080CD3
:100270004FF0010808FA0CF3B1F800C00CEA0306CD
:100280009E4221D183004FF00F0C0CFA03F7BC43C0
:1002900005FA03FC4CEA040491F803C0BCF1280FF2
:1002A00005D100F1080C08FA0CF8C2F8148091F896
:1002B00003C0BCF1480F07D100F1080C4FF0010852
:1002C00008FA0CF8C2F81080401C0828CED35460FD
:1002D000BDE8F0810161704700BFFEE700BFFEE7A7
:1002E0007047000070B5002100230F22C47804B3CA
:1002F000154C246804F4E064C4F5E064210AC1F1FB
:100300000403CA40447804FA03F18478144021437A
:1003100009010E4C0678A155047804F01F0501244C
:10032000AC4005786D11AD0005F1E025C5F8004140
:1003300009E0047804F01F050124AC40044D067860
:10034000761145F8264070BD0CED00E000E400E0B9
:1003500080E100E002490143024A11607047000059
:100360000000FA050CED00E07047000029B1064AD4
:1003700092690243044B9A6104E0034A9269824302
:10038000014B9A61704700000010024030B5002117
:100390000022002400232D4D6D6805F00C0121B1D1
:1003A000042905D0082923D105E0294D056022E064
:1003B000274D05601FE0254D6D6805F47012234D33
:1003C0006D6805F48034022505EB92421CB9214D7D
:1003D000554305600BE01D4D6D6805F400351DB1FA
:1003E0001C4D5543056002E0194D5543056002E080
:1003F000174D056000BF00BF144D6D6805F0F0019A
:100400000909154D6B5C0568DD4045600F4D6D6851
:1004100005F4E061090A104D6B5C4568DD408560BC
:100420000A4D6D6805F46051C90A0B4D6B5C456857
:10043000DD40C560054D6D6805F44041890B074DF1
:100440006B5CC568B5FBF3F5056130BD001002407B
:1004500000127A0000093D00140000202400002052
:1004600000B587B001210803FFF780FF0121D420E8
:10047000FFF77CFF0120ADF8180003208DF81A006B
:1004800010208DF81B0006A92348FFF798FE2020B6
:10049000ADF8180018208DF81B0006A91F48FFF7BB
:1004A0008EFE4020ADF8180006A91C48FFF787FE15
:1004B0008020ADF8180006A91848FFF780FE01213A
:1004C0001548FFF707FF0020ADF804004FF48270D5
:1004D000ADF806000020ADF808000220ADF80A00D3
:1004E0000120ADF80C004002ADF80E003820ADF848
:1004F00010000020ADF812000720ADF8140001A98B
:10050000074800F067F80121054800F049F8FF208E
:1005100000F008F807B000BD0010014000080140DD
:100520000030014070B50546002405E0601CC4B2EF
:10053000C82C01DD002070BD02210E4800F03CF8FF
:100540000028F3D029460B4800F042F8002405E0CB
:10055000601CC4B2C82C01DD0020ECE70121054875
:1005600000F02AF80028F3D0024800F02EF8C0B2BC
:10057000E1E700000030014010B50446074800885C
:100580004FF6C77108400549088008460088204397
:1005900008800121014800F003F810BD003001403F
:1005A00021B1028842F04002028004E002884FF646
:1005B000BF731A40028070470246002013890B4027
:1005C0000BB1012000E00020704701468889704788
:1005D0008181704710B50022028802F441520B88D5
:1005E0004C8823438C882343CC8823430C892343A2
:1005F0004C8923438C892343CC8923431A430280AB
:10060000838B4FF2FF74234083830B8A038210BDD8
:10061000704710B500F002F810BD00000CB50020C6
:10062000019000903348006840F480303149086000
:1006300000BF3048006800F4003000900198401C72
:100640000190009818B90198B0F5A06FF1D1294830
:10065000006800F4003010B10120009001E000209B
:1006600000900098012843D12348006840F0100012
:10067000214908600846006820F003000860084629
:10068000006840F0020008601A4840681949486054
:100690000846406848600846406840F4806048600A
:1006A0000846406820F47C1048600846406840F4E2
:1006B000E81048600846006840F08070086000BF9D
:1006C0000C48006800F000700028F9D00948406824
:1006D00020F00300074948600846406840F00200E7
:1006E000486000BF0348406800F00C000828F9D1BA
:1006F0000CBD00000010024000200240042808D178
:100700004FF0E021096941F004014FF0E02211614E
:1007100007E04FF0E021096921F004014FF0E022E9
:10072000116170477047000010B51348006840F031
:1007300001001149086008464068104908400E4908
:100740004860084600680E4908400B4908600846A2
:10075000006820F4802008600846406820F4FE000D
:1007600048604FF41F008860FFF753FF4FF00060B0
:100770000449086010BD0000001002400000FFF8AE
:10078000FFFFF6FE08ED00E010B540F225510A48E3
:1007900000F024F870B1084800F0DCF8C4B2074853
:1007A0000088C0F30B0006490C5404480068401C44
:1007B0000249086010BD00000038014030000020F0
:1007C0003C00002021B1828942F40052828104E081
:1007D00082894DF6FF731A408281704770B50246D8
:1007E000002400230025002040F66A16B14200D103
:1007F00000BFC1F3421501F01F03012606FA03F3FF
:10080000012D02D19689334006E0022D02D1168ACD
:10081000334001E0968A33400C12012606FA04F4B4
:100820001688344013B10CB1012000E0002070BDE7
:10083000F0B50346002400260025002040F66A1784
:10084000B94200D100BF1846C1F3421401F01F069F
:10085000012707FA06F5012C01D10C3004E0022C27
:1008600001D1103000E014301AB107682F4307603F
:1008700002E00768AF430760F0BD00002DE9F047D4
:1008800086B005460E460024A24600BFA1460027BA
:10089000B08900B100BF2F462C8A4CF6FF7004408F
:1008A000F08804432C82AC894EF6F3100440B088E3
:1008B00031890843718908430443AC81AC8A4FF6FF
:1008C000FF400440B0890443AC8201A8FFF75EFDFD
:1008D0001F48874202D1DDF810A001E0DDF80CA02E
:1008E000A88900F4004040B10AEBCA0000EB0A10EE
:1008F00031684900B0FBF1F807E00AEBCA0000EBF1
:100900000A1031688900B0FBF1F86420B8FBF0F000
:1009100004012009642101FB1089A88900F400402A
:1009200040B1322000EBC900B0FBF1F000F007004D
:10093000044308E0322000EB09106421B0FBF1F021
:1009400000F00F0004432C8106B0BDE8F0870000E2
:100950000038014001468888C0F30800704700BF96
:10096000FEE7000010B50446240300F071F800F023
:1009700065F800200B4908602020FFF7D3FDC4F381
:100980000740FFF7CFFDC4F30720FFF7CBFDE0B230
:10099000FFF7C8FD01200449C1F8800100F04EF8BE
:1009A00010BD0000800122420000224210B5FFF776
:1009B00057FD0020FFF7E0FD00F006F80149088030
:1009C00010BD00003A00002010B5002400200E49A0
:1009D00008609020FFF7A6FD0020FFF7A3FD002090
:1009E000FFF7A0FD0020FFF79DFDFF20FFF79AFD18
:1009F00044EA0024FF20FFF795FD0443012003494A
:100A0000C1F88001204610BD800122420000224230
:100A100010B500240020074908600520FFF782FD7B
:100A2000FF20FFF77FFD044601200349C1F8800144
:100A3000204610BD800122420000224210B500BFB6
:100A4000FFF7E6FF00F001000028F9D110BD00001B
:100A500010B50020044908600620FFF763FD01205F
:100A60000249C1F8800110BD8001224200002242EB
:100A70002DE9F04107460E461446F0B2C0F58075E8
:100A8000AC4200DC254612E02A463146384600F0EA
:100A900013F8AC4200D10BE02F442E44601B84B20B
:100AA000B4F5807F02DD4FF4807500E02546EBE76A
:100AB00000BFBDE8F08100002DE9F04106460C467C
:100AC0001746FFF7C5FF00200F4908600220FFF717
:100AD00029FDC4F30740FFF725FDC4F30720FFF706
:100AE00021FDE0B2FFF71EFD002504E0705DFFF779
:100AF00019FD681C85B2BD42F8DB0120024908607F
:100B0000FFF79CFFBDE8F081800122420FB4054B46
:100B100010B503A9044A029800F018F810BC5DF85B
:100B200014FB0000950D00082C00002002E008C80E
:100B3000121F08C1002AFAD170477047002001E057
:100B400001C1121F002AFBD1704700002DE9FF4FA1
:100B50008BB09A460F460546002606E025280BD0A6
:100B600052460D9990476D1C761C28780028F5D1C7
:100B70000FB03046BDE8F08F0024A0460122604946
:100B800000E0044315F8013F203B02FA03F008425D
:100B9000F7D128782E2817D115F8010F44F0040456
:100BA0002A280ED06FF02F022878A0F130010929F1
:100BB0000AD808EB880102EB410100EB01086D1C2B
:100BC000F2E757F8048B6D1C287869283ED006DCC4
:100BD0000028CDD063280BD0642804D136E07328D8
:100BE00010D075284BD052460D999047761C85E061
:100BF00017F8040B8DF8000000208DF80100E9467D
:100C0000012003E057F8049B4FF0FF3061074FF0DD
:100C1000000401D40AE0641C44450DDA8442FADB86
:100C200019F804100029F6D106E0641C8442FCDBAC
:100C300019F804100029F8D1264404E019F8010B32
:100C400052460D999047641EF8D257E001CF4FF0FD
:100C50000A0B002802DA40422D2102E0210504D5CA
:100C60002B218DF82410012103E0E10705D020217C
:100C7000F7E70DF1200908910CE00021F9E701CF19
:100C80004FF00A0BF9E75946FFF76EFA01F130020F
:100C900009F8012D0028F6D1ADEB090000F1200B79
:100CA000600701D44FF00108D84502DDA8EB0B0026
:100CB00000E000208046002406E009A85246005DBE
:100CC0000D999047641C761C08988442F5DB04E07B
:100CD000302052460D999047761CB8F10001A8F1DA
:100CE0000108F5DC05E019F8010B52460D99904713
:100CF000761CBBF10001ABF1010BF4DC6D1C34E799
:100D00000928010010B56FF00400FFF7F7FC0A484E
:100D100000680A49B0FBF1F00949087008460078FC
:100D200000EB4001C1EBC0104FF6FF7101EAC000BB
:100D30000449088010BD00000000002000127A0065
:100D4000280000202A0000200146114A12884A4348
:100D50004FF0E0235A6100229A611A46126942F06C
:100D600001021A6100BF4FF0E022106900F0010299
:100D70001AB100F48032002AF5D04FF0E022126957
:100D800022F001024FF0E0231A6100229A617047BD
:100D90002A00002000BF054A128802F04002002A03
:100DA000F9D0C2B2014B1B1D1A80704700380140B8
:100DB00000260024002500274FF4A060FFF7CAFAA0
:100DC000FFF7A0FF4FF4E13000F052F9FFF7EEFD1E
:100DD000C820FFF7B9FF02E05CA0FFF797FEFFF71E
:100DE000F3FD4EF616718842F6D15EA0FFF78EFE37
:100DF00000206549087048708872A6E06348007852
:100E0000002865D160480078FE28F6D15E48407819
:100E1000FF28F2D15C48807AFE28EED101205B49A0
:100E2000087000205A4908600846076800245648A0
:100E3000807804435448C07844EA0024524800793A
:100E400044EA00445048407944EA006400254E4892
:100E5000807905434C48C07945EA00254A48007A24
:100E600045EA00454848407A45EA00650520FFF715
:100E70006BFF48A0FFF74AFE2A46214648A0FFF72D
:100E800045FE4EA0FFF742FE260B0AE03046FFF774
:100E900069FD31464FA0FFF739FE9620FFF754FF5A
:100EA000761C2819C0F30B0008B1012000E00020D7
:100EB000291900EB1130B042E8D84BA0FFF726FE0D
:100EC00051A0FFF723FE56A156A0FFF71FFE3CE0FE
:100ED0002E480078012838D12D480088C0F30B0037
:100EE000C8B92B480068874215D0294800682044BB
:100EF000A0F580514FF480522348FFF7B9FD2448F4
:100F000007683220FFF720FF47A22148016847A069
:100F1000FFF7FCFD19E01E480068A84215D31C48E5
:100F200000682044C5F30B03C11AC5F30B02164831
:100F3000FFF79EFD3FA147A0FFF7E8FD14480168B9
:100F400046A0FFF7E3FD00BFFEE757E757323551F4
:100F5000363520436865636B204661696C656421A2
:100F60000D0A000057323551787820537563636558
:100F7000737366756C20696E697469616C697A61F6
:100F800074696F6E0D0A00003C00002038000020DC
:100F90003000002073746172742D2D2D000000004C
:100FA000616464725F73746172743D256420666964
:100FB0006C655F73697A653D2564000053746172E6
:100FC000742065726173696E6720736563746F72F4
:100FD000730D0A0045726173696E672073656374EF
:100FE0006F722025640D0A00536563746F7220656B
:100FF000726173696E6720697320636F6D706C65D1
:1010000074650D0A000000000D0A537461727420AB
:1010100077726974696E6720646174610D0A0000FB
:101020004E4100002573000041000000202564258A
:1010300073000000577269746520746F2066696CD4
:1010400065207375636365737366756C6C792D2D9C
:101050002D2D2D000D0A25730000000046696C65DA
:101060002053697A65202564204279746500000068
:1010700010B586B00446012144F20500FFF776F969
:101080004FF40070ADF8140003208DF816001820FE
:101090008DF8170005A91C48FFF791F84FF4806000
:1010A000ADF8140004208DF8170005A91648FFF7C5
:1010B00086F825208DF8000003208DF801008DF8BA
:1010C000020001208DF803006846FFF70BF9019438
:1010D0000020ADF80800ADF80A00ADF80C00ADF83E
:1010E00010000C20ADF80E0001A90848FFF7C6FB60
:1010F000012240F225510548FFF79AFB01210348E0
:10110000FFF760FB06B010BD000801400038014049
:1011100030110008000000203C0000002C0B0008EB
:101120006C1100083C000020041400003C0B000877
:1011300000A24A04000000000000000001020304B5
:10114000060708090000000001020304010203046D
:10115000060708090204060800000000000000005D
:0C1160000000000000000000000017EF7D
:0400000508000131BD
:00000001FF
